S01400004469676974436F756E7465722E737265633F
S11300000C942A000C9447000C9447000C9447006D
S11300100C9447000C9447000C9447000C94470040
S11300200C9447000C9447000C9447000C94470030
S11300300C9447000C9447000C9447000C94470020
S11300400C9447000C9447000C9447000C94470010
S11300500C94470011241FBECFE5D8E0DEBFCDBF0E
S113006010E0A0E6B0E0ECEBF4E002C005900D92E5
S1130070AE36B107D9F720E0AEE6B0E001C01D927C
S1130080AA3BB207E1F70E9497000C945C020C941F
S11300900000CF93DF93CDB7DEB788E390E02091E3
S11300A06E0030916F0026593F4FF9012081FC0109
S11300B020838BE390E02091700030917100205AEE
S11300C03F4FF9012081FC012083809170009091C1
S11300D0710001969093710080937000809170007C
S11300E0909171002AE030E0B9010E9434029093AB
S11300F071008093700080916E0090916F00019662
S113010090936F0080936E0080916E0090916F00C9
S113011083709078992324F401978C6F9F6F0196D4
S113012090936F0080936E00DF91CF910895CF93E9
S1130130DF93CDB7DEB70E94C401789487E390E0E3
S11301402FEFFC0120838AE390E02FEFFC01208352
S113015068EE73E089E490E00E94B1000E942001FF
S1130160FDCFCF93DF9300D000D0CDB7DEB79A8315
S113017089837C836B8380917200909173008A30B1
S113018091050CF056C020917200309173004B81A0
S11301905C81C901880F991F880F991F880F991FC7
S11301A0821B930B8A589F4FFC01518340832091FB
S11301B07200309173004B815C81C901880F991FD3
S11301C0880F991F880F991F821B930B88589F4F84
S11301D0FC01518340832091720030917300C90166
S11301E0880F991F880F991F880F991F821B930BE3
S11301F086589F4FFC011082209172003091730049
S1130200C901880F991F880F991F880F991F821B96
S1130210930B8C589F4F29813A81FC0131832083B1
S11302208091720090917300019690937300809373
S113023072000F900F900F900F90DF91CF9108955F
S1130240CF93DF9300D0CDB7DEB71A8219821A821A
S113025019828FC029813A81C901880F991F880F9B
S1130260991F880F991F821B930B86589F4FFC017F
S11302708081882309F478C029813A81C901880FD3
S1130280991F880F991F880F991F821B930B8858F9
S11302909F4FFC014081518129813A81C901880F16
S11302A0991F880F991F880F991F821B930B8A58D7
S11302B09F4FFC015183408329813A81C901880FF2
S11302C0991F880F991F880F991F821B930B8C58B5
S11302D09F4FFC0180819181FC01099529813A811C
S11302E0C901880F991F880F991F880F991F821BB6
S11302F0930B86589F4FFC018081482F41502981E0
S11303003A81C901880F991F880F991F880F991F77
S1130310821B930B86589F4FFC0140831A821982DB
S113032029813A81C901880F991F880F991F880F65
S1130330991F821B930B88589F4FFC0180819181E8
S1130340009791F429813A81C901880F991F880F78
S1130350991F880F991F821B930B88589F4F2FEF6B
S11303603FEFFC013183208389819A8101969A832E
S1130370898389819A818A3091050CF46BCF0F901F
S11303800F90DF91CF910895CF93DF9300D0CDB735
S1130390DEB783E590E023E530E0F90120812860B1
S11303A0FC01208383E590E023E530E0F90120811E
S11303B0FC01208383E590E023E530E0F90120810E
S11303C02360FC01208389E590E029E530E0F90110
S11303D020812260FC0120838CE590E02AEFFC015F
S11303E020831A8219821A82198234C029813A819F
S11303F0C901880F991F880F991F880F991F821BA5
S1130400930B88589F4FFC011182108229813A81F5
S1130410C901880F991F880F991F880F991F821B84
S1130420930B8A589F4FFC011182108229813A81D3
S1130430C901880F991F880F991F880F991F821B64
S1130440930B86589F4FFC01108289819A810196F3
S11304509A83898389819A818A3091053CF20F902D
S11304600F90DF91CF91089597FB072E16F4009417
S113047007D077FD09D00E94480207FC05D03EF45E
S1130480909581959F4F0895709561957F4F08953C
S1130490AA1BBB1B51E107C0AA1FBB1FA617B707A6
S11304A010F0A61BB70B881F991F5A95A9F78095C2
S10F04B09095BC01CD010895F894FFCF95
S11104BC3F065B4F666D7D077F6FF7F3F1F02F
S9030000FC
