:100000000C942A000C9447000C9447000C94470071
:100010000C9447000C9447000C9447000C94470044
:100020000C9447000C9447000C9414030C94470064
:100030000C9447000C9447000C9447000C94470024
:100040000C9447000C9447000C9447000C94470014
:100050000C94470011241FBECFE5D8E0DEBFCDBF12
:1000600010E0A0E6B0E0E2E0F7E002C005900D92FB
:10007000AE36B107D9F710E0AEE6B0E001C01D9290
:10008000AC3BB107E1F70E943E030C947F030C9454
:100090000000CF93DF9300D000D0CDB7DEB79A83B6
:1000A00089837C836B8380917400909175008A3082
:1000B00091050CF056C020917400309175004B8171
:1000C0005C81C901880F991F880F991F880F991F9C
:1000D000821B930B88589F4FFC01518340832091D2
:1000E0007400309175004B815C81C901880F991FA4
:1000F000880F991F880F991F821B930B86589F4F5B
:10010000FC01518340832091740030917500C90136
:10011000880F991F880F991F880F991F821B930BB7
:1001200084589F4FFC01108220917400309175001B
:10013000C901880F991F880F991F880F991F821B6B
:10014000930B8A589F4F29813A81FC013183208388
:100150008091740090917500019690937500809342
:1001600074000F900F900F900F90DF91CF91089532
:10017000CF93DF9300D000D0CDB7DEB79A838983C9
:100180007C836B8380917400909175008A30910517
:100190000CF054C020917400309175004B815C814B
:1001A000C901880F991F880F991F880F991F821BFB
:1001B000930B88589F4FFC0151834083209174001A
:1001C00030917500C901880F991F880F991F880FFA
:1001D000991F821B930B86589F4FFC01118210823E
:1001E0002091740030917500C901880F991F880F04
:1001F000991F880F991F821B930B84589F4FFC01F6
:1002000010822091740030917500C901880F991FE8
:10021000880F991F880F991F821B930B8A589F4F35
:1002200029813A81FC01318320838091740090916F
:100230007500019690937500809374000F900F9055
:100240000F900F90DF91CF910895CF93DF9300D05F
:10025000CDB7DEB71A8219821A8219827BC0298132
:100260003A81C901880F991F880F991F880F991F1C
:10027000821B930B88589F4FFC0180819181AC01B8
:100280004150504029813A81C901880F991F880F38
:10029000991F880F991F821B930B88589F4FFC0151
:1002A0005183408329813A81C901880F991F880FA2
:1002B000991F880F991F821B930B88589F4FFC0131
:1002C00080819181009709F040C029813A81C9015C
:1002D000880F991F880F991F880F991F821B930BF6
:1002E00084589F4FFC018081482F4F5F29813A81BC
:1002F000C901880F991F880F991F880F991F821BAA
:10030000930B84589F4FFC01408329813A81C90196
:10031000880F991F880F991F880F991F821B930BB5
:1003200086589F4FFC014081518129813A81C90142
:10033000880F991F880F991F880F991F821B930B95
:1003400088589F4FFC015183408389819A8101968F
:100350009A83898389819A818A3091050CF47FCFB1
:100360000F900F90DF91CF910895CF93DF9300D03E
:10037000CDB7DEB71A8219821A8219828FC02981FD
:100380003A81C901880F991F880F991F880F991FFB
:10039000821B930B84589F4FFC018081882309F4B2
:1003A00078C029813A81C901880F991F880F991F48
:1003B000880F991F821B930B86589F4FFC01408129
:1003C000518129813A81C901880F991F880F991F8E
:1003D000880F991F821B930B88589F4FFC015183F4
:1003E000408329813A81C901880F991F880F991F7D
:1003F000880F991F821B930B8A589F4FFC018081A5
:100400009181FC01099529813A81C901880F991FC1
:10041000880F991F880F991F821B930B84589F4F39
:10042000FC018081482F415029813A81C901880F00
:10043000991F880F991F880F991F821B930B84584F
:100440009F4FFC0140831A82198229813A81C90198
:10045000880F991F880F991F880F991F821B930B74
:1004600086589F4FFC0180819181009791F42981EA
:100470003A81C901880F991F880F991F880F991F0A
:10048000821B930B86589F4F2FEF3FEFFC01318368
:10049000208389819A8101969A83898389819A81AF
:1004A0008A3091050CF46BCF0F900F90DF91CF91B4
:1004B0000895CF93DF9300D0CDB7DEB783E590E00A
:1004C00023E530E0F90120812860FC01208383E5E9
:1004D00090E023E530E0F9012081FC01208383E5F1
:1004E00090E023E530E0F90120812360FC012083C6
:1004F00089E590E029E530E0F90120812260FC01E6
:1005000020838CE590E02AEFFC0120831A82198277
:100510001A82198234C029813A81C901880F991F32
:10052000880F991F880F991F821B930B86589F4F26
:10053000FC011182108229813A81C901880F991F1B
:10054000880F991F880F991F821B930B88589F4F04
:10055000FC011182108229813A81C901880F991FFB
:10056000880F991F880F991F821B930B84589F4FE8
:10057000FC01108289819A8101969A8389838981FD
:100580009A818A3091053CF20F900F90DF91CF91C4
:100590000895CF93DF93CDB7DEB788E390E0209145
:1005A00070003091710026593F4FF9012081FC0104
:1005B00020838BE390E02091720030917300205AE9
:1005C0003F4FF9012081FC012083809172009091BE
:1005D0007300019690937300809372008091720073
:1005E000909173002AE030E0B9010E945803909383
:1005F0007300809372008091700090917100019659
:1006000090937100809370008091700090917100C0
:1006100024E030E0B9010E94580390937100809368
:100620007000DF91CF9108951F920F920FB60F9235
:1006300011242F933F934F935F936F937F938F93E7
:100640009F93AF93BF93EF93FF93CF93DF93CDB778
:10065000DEB70E942501DF91CF91FF91EF91BF910D
:10066000AF919F918F917F916F915F914F913F914A
:100670002F910F900FBE0F901F901895CF93DF937F
:10068000CDB7DEB70E945902789487E390E02FEF50
:10069000FC0120838AE390E02FEFFC01208389ECAA
:1006A00092E068EE73E00E9449000E94B501FDCF20
:1006B00097FB092E07260AD077FD04D00CD006D070
:1006C00000201AF4709561957F4F0895F6F7909584
:1006D00081959F4F0895AA1BBB1B51E107C0AA1F1C
:1006E000BB1FA617B70710F0A61BB70B881F991FD3
:1006F0005A95A9F780959095BC01CD010895F8947D
:02070000FFCF29
:0E070200C0F9A4B09B9222B80090F7F3F1F07A
:00000001FF
