:100000000C942A000C9447000C9447000C94470071
:100010000C9447000C9447000C9447000C94470044
:100020000C9447000C9447000C9447000C94470034
:100030000C9447000C9447000C9447000C94470024
:100040000C9447000C9447000C9447000C94470014
:100050000C94470011241FBECFE5D8E0DEBFCDBF12
:1000600010E0A0E6B0E0EEE1F4E002C005900D92F1
:10007000AE37B107D9F710E0AEE7B0E001C01D928E
:10008000AC3CB107E1F70E94FF000C940D020C9408
:100090000000DD9A9BB3907F9BBB9BB3892B8BBBEE
:1000A000DD980895CF93C82F82958F700E944900E4
:1000B0008C2F0E94490080E18A95F1F700C0CF9112
:1000C0000895DC980E9452000895CF93DF93EC01CD
:1000D000DC9A8881882331F021960E945200899110
:1000E0008823D9F7DF91CF91089508950895089551
:1000F000C49A98B38F70907F982B98BBC49808953A
:1001000081EF9BE20197F1F700C00000C59883E002
:100110000E94780081EE94E00197F1F700C00000A2
:1001200083E00E94780081EE94E00197F1F700C02F
:10013000000083E00E94780081EE94E00197F1F7DF
:1001400000C0000082E00E94780082E00E947800F7
:1001500088E00E94780083EF91E00197F1F700C0FA
:10016000000080E00E94780088E00E94780083EF21
:1001700091E00197F1F700C0000080E00E94780054
:1001800081E00E94780083EF91E00197F1F700C0D1
:10019000000080E00E94780086E00E94780083EFF3
:1001A00091E00197F1F700C000008FE00E9452003B
:1001B00008952091800030918100F901EC59FF4FA2
:1001C000808188BB80917E0090917F00FC01E8597E
:1001D000FF4F40814BBB01966AE070E00E94E60150
:1001E00090937F0080937E00C901019664E070E0E7
:1001F0000E94E601909381008093800008950E9400
:10020000C30178948FEF87BB8ABB0E94800080E691
:1002100090E00E9465000E946801FDCF9C018091E2
:100220008200909183008A309105BCF4FC01EE0FAE
:10023000FF1FEE0FFF1FEE0FFF1FE81BF90BEA5722
:10024000FF4F6283738364837583168231832083B7
:100250000196909383008093820008959C01809181
:100260008200909183008A309105BCF4FC01EE0F6E
:10027000FF1FEE0FFF1FEE0FFF1FE81BF90BEA57E2
:10028000FF4F738362831582148216823183208329
:10029000019690938300809382000895E8E8F0E04F
:1002A000DF0114962EEC30E08081918101979183DB
:1002B0008083009739F48C918F5F8C938281938136
:1002C0009183808337961796E217F30769F70895AD
:1002D0008F929F92AF92BF92CF92DF92EF92FF9256
:1002E0000F931F93CF93DF9320E030E006E810E0F8
:1002F000EE24FF246894E2F8E00EF11ECC24DD2405
:10030000C3940F2EFAE8AF2EF0E0BF2EF02D882414
:100310008A94982CC901880F991F880F991F880FFC
:10032000991F821B930B800F911FFC0186818823EC
:10033000A9F0EF0184819581938382830190F081FC
:10034000E02D09958E8181508E83F7018081918106
:10035000009751F4F5019182808206C02F5F3F4FD4
:100360002A303105BCF202C09601D4CFDF91CF9183
:100370001F910F91FF90EF90DF90CF90BF90AF90C3
:100380009F908F90089583B7886083BF83B783BFA2
:1003900083B7836083BF89B7826089BF8AEF8CBFD0
:1003A000E8E8F0E0DF0114968EEC90E01382128210
:1003B000118210821C9237961796E817F907B1F749
:1003C00008950E944E0180E090E0089597FB092E69
:1003D00007260AD077FD04D00CD006D000201AF4EE
:1003E000709561957F4F0895F6F7909581959F4F91
:1003F0000895AA1BBB1B51E107C0AA1FBB1FA6176C
:10040000B70710F0A61BB70B881F991F5A95A9F7BD
:0E04100080959095BC01CD010895F894FFCF22
:10041E00636F7300F7F3F1F03F065B4F666D7D0778
:0E042E007F6FC0F9A4B099928282F88090008E
:00000001FF
