S01400004469676974616C436C6F636B2E7372656366
S11300000C942A000C9447000C9447000C9447006D
S11300100C9447000C9447000C9447000C94470040
S11300200C9447000C9447000C949B070C944700D5
S11300300C9447000C9447000C9447000C94470020
S11300400C9447000C9447000C9447000C94470010
S11300500C94470011241FBECFE5D8E0DEBFCDBF0E
S113006010E0A0E6B0E0E2EEFFE002C005900D92E1
S1130070A038B107D9F720E0A0E8B0E001C01D9294
S1130080A43DB207E1F70E94EB040C94EF070C9433
S11300900000CF93DF93CDB7DEB7809160009091DD
S11300A061008130910511F40E94A00380916000E9
S11300B090916100009711F40E94A102DF91CF9109
S11300C00895CF93DF93CDB7DEB728970FB6F89492
S11300D0DEBF0FBECDBF1A82198285E390E0FC011A
S11300E0108284E390E02FE0FC01208385E390E01C
S11300F020EFFC0120831A82198205C089819A812C
S113010001969A83898389819A8188309105B4F311
S113011083E390E0FC01908180EF8927882F90E0B1
S11301200E94BF0404979E838D8385E390E0FC01C5
S1130130108284E390E020EFFC01208385E390E0CB
S11301402FE0FC0120831A82198205C089819A81DB
S113015001969A83898389819A8188309105B4F3C1
S113016083E390E0FC0190818FE08927882F90E061
S11301700E94BF0498878F838D819E8101979C0183
S1130180220F331F220F331F8F819885820F931FF5
S11301909C838B838B819C8199232CF08B819C8104
S11301A08530910514F01C821B828AE390E02FEFC6
S11301B0FC0120838B819C8190938100809380003B
S11301C00E94EB0028960FB6F894DEBF0FBECDBF99
S11301D0DF91CF910895CF93DF93CDB7DEB7209110
S11301E080003091810080917C0090917D002817DF
S11301F03907B1F480918800909189000196909319
S1130200890080938800809188009091890023E080
S113021030E0B9010E94C707909389008093880059
S1130220DF91CF910895CF93DF93CDB7DEB781E00F
S113023090E0909387008093860020916000309135
S1130240610080917200909173002817390799F525
S113025020918800309189008091760090917700F8
S11302602817390741F52091800030918100809151
S11302707E0090917F0028173907E9F4809184006B
S113028090918500019690938500809384008091DD
S11302908400909185008C3391056CF080918400EA
S11302A0909185002CE330E0B9010E94C707909338
S11302B085008093840020916000309161008091DA
S11302C07200909173002817390799F520918800DE
S11302D0309189008091780090917900281739072E
S11302E041F5209180003091810080917E009091B1
S11302F07F0028173907E9F4809162009091630028
S113030001969093630080936200809162009091C3
S11303106300883191056CF08091620090916300D4
S113032028E130E0B9010E94C707909363008093ED
S1130330620020916000309161008091740090917E
S113034075002817390799F52091880030918900A4
S113035080917600909177002817390741F5209114
S113036080003091810080917E0090917F00281759
S11303703907E9F48091820090918300019690936B
S113038083008093820080918200909183008C335B
S113039091056CF080918200909183002CE330E011
S11303A0B9010E94C7079093830080938200209133
S11303B0600030916100809174009091750028175D
S11303C0390799F52091880030918900809178004F
S11303D0909179002817390741F5209180003091D8
S11303E0810080917E0090917F0028173907E9F4FD
S11303F0809184009091850001969093850080936C
S1130400840080918400909185008C3391056CF078
S113041080918400909185002CE330E0B9010E9422
S1130420C7079093850080938400109287001092F0
S11304308600DF91CF910895CF93DF93CDB7DEB7D8
S1130440809180009091810081309105C9F4809160
S11304506000909161000196909361008093600028
S1130460809160009091610081709078992324F4C8
S113047001978E6F9F6F0196909361008093600047
S1130480DF91CF910895CF93DF93CDB7DEB78091FD
S1130490860090918700009709F050C080918200F7
S11304A090918300019690938300809382008091C1
S11304B08200909183008C3391054CF080918400EC
S11304C0909185000196909385008093840080919B
S11304D08200909183002CE330E0B9010E94C707A9
S11304E09093830080938200809184009091850092
S11304F08C3391054CF080916200909163000196D9
S113050090936300809362008091840090918500B1
S11305102CE330E0B9010E94C707909385008093D3
S11305208400809162009091630028E130E0B90179
S11305300E94C7079093630080936200DF91CF917C
S11305400895CF93DF93CDB7DEB728970FB6F8940D
S1130550DEBF0FBECDBF88E390E02FEFFC01208308
S113056080918400909185002AE030E0B9010E94D6
S1130570C7079B013A832983809184009091850069
S11305802AE030E0B9010E94C7079C838B838091E5
S11305906200909163002AE030E0B9010E94C7072D
S11305A09B013E832D8380916200909163002AE039
S11305B030E0B9010E94C70798878F8380918A0031
S11305C090918B00009789F488E390E020916E006D
S11305D0FC0120838BE390E02B813C812C593F4F1D
S11305E0F9012081FC01208347C080918A00909109
S11305F08B008130910589F488E390E020916F00AD
S1130600FC0120838BE390E029813A812C593F4FF0
S1130610F9012081FC0120832FC080918A009091F0
S11306208B008230910589F488E390E0209170007A
S1130630FC0120838BE390E02F8138852C593F4FB8
S1130640F9012081FC01208317C080918A009091D8
S11306508B008330910581F488E390E02091710050
S1130660FC0120838BE390E02D813E812C593F4F88
S1130670F9012081FC01208380918A0090918B00F4
S1130680019690938B0080938A002091880030918A
S1130690890080917800909179002817390789F4AE
S11306A080918A0090918B0081709078992324F432
S11306B001978E6F9F6F0196029690938B008093A3
S11306C08A00209188003091890080917600909171
S11306D077002817390781F480918A0090918B0064
S11306E081709078992324F401978E6F9F6F0196FF
S11306F090938B0080938A00209188003091890028
S113070080917A0090917B002817390781F48091B9
S11307108A0090918B0083709078992324F4019738
S11307208C6F9F6F019690938B0080938A0028961C
S11307300FB6F894DEBF0FBECDBFDF91CF91089501
S1130740CF93DF93CDB7DEB728970FB6F894DEBF0B
S11307500FBECDBF88E390E02FEFFC012083809192
S11307608200909183002AE030E0B9010E94C7071B
S11307709B013A83298380918200909183002AE02F
S113078030E0B9010E94C7079C838B838091840069
S1130790909185002AE030E0B9010E94C7079B01CF
S11307A03E832D8380918400909185002AE030E07F
S11307B0B9010E94C70798878F8380918A0090911E
S11307C08B00009789F488E390E020916E00FC018F
S11307D020838BE390E02B813C812C593F4FF9011E
S11307E02081FC01208347C080918A0090918B0076
S11307F08130910589F488E390E020916F00FC0139
S113080020838BE390E029813A812C593F4FF901F1
S11308102081FC0120832FC080918A0090918B005D
S11308208230910589F488E390E020917000FC0106
S113083020838BE390E02F8138852C593F4FF901B9
S11308402081FC01208317C080918A0090918B0045
S11308508330910581F488E390E020917100FC01DC
S113086020838BE390E02D813E812C593F4FF90189
S11308702081FC01208380918A0090918B00019655
S113088090938B0080938A00209188003091890096
S113089080917800909179002817390789F4809124
S11308A08A0090918B0081709078992324F40197A9
S11308B08E6F9F6F0196029690938B0080938A00AF
S11308C02091880030918900809176009091770082
S11308D02817390781F480918A0090918B008170E8
S11308E09078992324F401978E6F9F6F01969093CB
S11308F08B0080938A002091880030918900809138
S11309007A0090917B002817390781F480918A003E
S113091090918B0083709078992324F401978C6FC5
S11309209F6F019690938B0080938A0028960FB650
S1130930F894DEBF0FBECDBFDF91CF910895CF9362
S1130940DF9300D0CDB7DEB79A83898389819A81FA
S1130950009771F089819A819C0121503109898124
S11309609A8182239323009719F481E090E002C0D6
S113097080E090E00F900F90DF91CF910895CF9396
S1130980DF9300D000D0CDB7DEB79C838B838B81FF
S11309909C810E949F04009719F480E090E014C0A9
S11309A01A8219820BC08B819C81969587959C83B2
S11309B08B8389819A8101969A8389838B819C8117
S11309C0009789F789819A810F900F900F900F906B
S11309D0DF91CF910895CF93DF93CDB7DEB70E9417
S11309E015050E946C0568EC70E081E690E00E94B9
S11309F0940568EE73E083E492E00E94940565E058
S1130A0070E089E490E00E94940568EE73E08CE164
S1130A1092E00E94940568EC70E083E191E00E940A
S1130A20940578940E94EB06FDCFCF93DF9300D01A
S1130A30CDB7DEB71A82198244C029813A81C9012F
S1130A40880F991F880F991F880F991F821B930B7A
S1130A508E569F4FFC011182108229813A81C9016F
S1130A60880F991F880F991F880F991F821B930B5A
S1130A708C569F4FFC01108229813A81C901880F4D
S1130A80991F880F991F880F991F821B930B8257F8
S1130A909F4FFC011182108229813A81C901880F7C
S1130AA0991F880F991F880F991F821B930B8057DA
S1130AB09F4FFC011182108289819A8101969A8349
S1130AC0898389819A818A3091050CF4B6CF0F907D
S1130AD00F90DF91CF910895CF93DF93CDB7DEB719
S1130AE08CE590E02AEFFC01208383E590E023E588
S1130AF030E0F90120812B60FC01208389E590E03E
S1130B0029E530E0F90120812360FC0120838AE398
S1130B1090E02FEFFC01208387E390E02FEFFC01AE
S1130B202083DF91CF910895CF93DF9300D000D03D
S1130B30CDB7DEB79A8389837C836B8380918C00E5
S1130B4090918D008A3091050CF045C020918C0065
S1130B5030918D00C901880F991F880F991F880F44
S1130B60991F821B930B8E569F4F2B813C81FC0156
S1130B703183208320918C0030918D00C901880F2E
S1130B80991F880F991F880F991F821B930B8057F9
S1130B909F4F2B813C81FC013183208320918C0069
S1130BA030918D00C901880F991F880F991F880FF4
S1130BB0991F821B930B82579F4F29813A81FC0115
S1130BC03183208380918C0090918D0001969093C5
S1130BD08D0080938C000F900F900F900F90DF91F9
S1130BE0CF910895CF93DF9300D0CDB7DEB71A82AB
S1130BF01982E6C029813A81C901880F991F880F9B
S1130C00991F880F991F821B930B82579F4FFC01DA
S1130C1080819181009709F4CEC029813A81C9016C
S1130C20880F991F880F991F880F991F821B930B98
S1130C3080579F4FFC0180819181AC014150510943
S1130C4029813A81C901880F991F880F991F880F3C
S1130C50991F821B930B80579F4FFC015183408344
S1130C6029813A81C901880F991F880F991F880F1C
S1130C70991F821B930B80579F4FFC0180819181A8
S1130C80009709F054C029813A81C901880F991F3E
S1130C90880F991F880F991F821B930B8E569F4FA5
S1130CA0FC0180819181009709F441C029813A8136
S1130CB0C901880F991F880F991F880F991F821BDC
S1130CC0930B8C569F4FFC018081482F4F5F2981E5
S1130CD03A81C901880F991F880F991F880F991F9E
S1130CE0821B930B8C569F4FFC01408329813A81D0
S1130CF0C901880F991F880F991F880F991F821B9C
S1130D00930B8E569F4FFC014081518129813A817A
S1130D10C901880F991F880F991F880F991F821B7B
S1130D20930B80579F4FFC015183408344C029811A
S1130D303A81C901880F991F880F991F880F991F3D
S1130D40821B930B80579F4FFC01808191810097F8
S1130D5091F529813A81C901880F991F880F991F3C
S1130D60880F991F821B930B8E569F4FFC01808125
S1130D709181009701F529813A81C901880F991F52
S1130D80880F991F880F991F821B930B8C569F4FB6
S1130D90FC018081482F4F5F29813A81C901880F66
S1130DA0991F880F991F880F991F821B930B8C56CC
S1130DB09F4FFC01408389819A8101969A8389839C
S1130DC089819A818A3091050CF414CF0F900F9089
S1130DD0DF91CF910895CF93DF9300D0CDB7DEB7E5
S1130DE01A8219829DC029813A81C901880F991FED
S1130DF0880F991F880F991F821B930B8C569F4F46
S1130E00FC018081882309F486C029813A81C901C3
S1130E10880F991F880F991F880F991F821B930BA6
S1130E2082579F4FFC0180819181FC0109952981A2
S1130E303A81C901880F991F880F991F880F991F3C
S1130E40821B930B8C569F4FFC018081482F41508D
S1130E5029813A81C901880F991F880F991F880F2A
S1130E60991F821B930B8C569F4FFC014083298151
S1130E703A81C901880F991F880F991F880F991FFC
S1130E80821B930B8C569F4FFC018081882309F0B1
S1130E9042C029813A81C901880F991F880F991F7F
S1130EA0880F991F821B930B8E569F4FFC018081E4
S1130EB09181009781F529813A81C901880F991F91
S1130EC0880F991F880F991F821B930B8E569F4F73
S1130ED0FC011182108229813A81C901880F991F6E
S1130EE0880F991F880F991F821B930B80579F4F60
S1130EF0FC011182108229813A81C901880F991F4E
S1130F00880F991F880F991F821B930B82579F4F3D
S1130F10FC011182108289819A8101969A838983C6
S1130F2089819A818A3091050CF45DCF0F900F90DE
S1130F30DF91CF9108951F920F9200905F000F925E
S1130F4011242F933F934F935F936F937F938F93CA
S1130F509F93AF93BF93EF93FF93CF93DF93CDB75B
S1130F60DEB70E94F205DF91CF91FF91EF91BF911F
S1130F70AF919F918F917F916F915F914F913F912D
S1130F802F910F9000925F000F901F90189597FB80
S1130F90072E16F4009407D077FD09D00E94DB07D2
S1130FA007FC05D03EF4909581959F4F0895709568
S1130FB061957F4F0895AA1BBB1B51E107C0AA1F6F
S1130FC0BB1FA617B70710F0A61BB70B881F991FE6
S1130FD05A95A9F780959095BC01CD010895F89490
S1050FE0FFCF3D
S1130FE201000C00C0F9A4B0999282F88090FEFD31
S1130FF2FBF70000010001000200000002000300F0
S9030000FC
