:100000000C942A000C9447000C9447000C94470071
:100010000C9447000C9447000C9447000C94470044
:100020000C9447000C9447000C94FF050C94470077
:100030000C9447000C9447000C9447000C94470024
:100040000C9447000C9447000C9447000C94470014
:100050000C94470011241FBECFE5D8E0DEBFCDBF12
:1000600010E0A0E6B0E0EAEAFCE002C005900D92E4
:10007000A037B107D9F720E0A0E7B0E001C01D929A
:10008000A43CB207E1F70E9450030C9453060C9471
:100090000000CF93DF9300D0CDB7DEB79A8389837A
:1000A00089819A81009771F089819A819C01215000
:1000B000310989819A8182239323009719F481E081
:1000C00090E002C080E090E00F900F90DF91CF9120
:1000D0000895CF93DF9300D000D0CDB7DEB79C83D7
:1000E0008B838B819C810E944900009719F480E0EA
:1000F00090E014C01A8219820BC08B819C81969566
:1001000087959C838B8389819A8101969A838983C1
:100110008B819C81009789F789819A810F900F903C
:100120000F900F90DF91CF910895CF93DF93CDB7CC
:10013000DEB728970FB6F894DEBF0FBECDBF1A8288
:10014000198285E390E0FC01108284E390E02FE0C7
:10015000FC01208385E390E020EFFC0120831A82DC
:10016000198205C089819A8101969A838983898140
:100170009A8188309105B4F383E390E0FC0190818B
:1001800080EF8927882F90E00E94690004979E8362
:100190008D8385E390E0FC01108284E390E020EF02
:1001A000FC01208385E390E02FE0FC0120831A828C
:1001B000198205C089819A8101969A8389838981F0
:1001C0009A8188309105B4F383E390E0FC0190813B
:1001D0008FE08927882F90E00E94690098878F839D
:1001E0008D819E8101979C01220F331F220F331FA7
:1001F0008F819885820F931F9C838B838B819C8139
:10020000992314F41C821B828AE390E02FEFFC01F7
:1002100020838BE390E0FC0110828BE390E02B8144
:10022000FC0120838B819C819093710080937000EE
:1002300028960FB6F894DEBF0FBECDBFDF91CF91E9
:100240000895CF93DF93CDB7DEB780917000909182
:10025000710081309105C9F4809160009091610036
:10026000019690936100809360008091600090916E
:10027000610081709078992324F401978E6F9F6FAD
:1002800001969093610080936000DF91CF91089573
:10029000CF93DF93CDB7DEB728970FB6F894DEBFC4
:1002A0000FBECDBF88E390E02FEFFC01208380914B
:1002B0007200909173002AE030E0B9010E942B0691
:1002C0009B013A83298380917200909173002AE008
:1002D00030E0B9010E942B069C838B8380917400CF
:1002E000909175002AE030E0B9010E942B069B0135
:1002F0003E832D8380917400909175002AE030E058
:10030000B9010E942B0698878F8380917A00909183
:100310007B00009789F488E390E020916C00FC0159
:1003200020838BE390E02B813C812E593F4FF901D4
:100330002081FC01208347C080917A0090917B004E
:100340008130910589F488E390E020916D00FC01F3
:1003500020838BE390E029813A812E593F4FF901A8
:100360002081FC0120832FC080917A0090917B0036
:100370008230910589F488E390E020916E00FC01C1
:1003800020838BE390E02F8138852E593F4FF90170
:100390002081FC01208317C080917A0090917B001E
:1003A0008330910581F488E390E020916F00FC0197
:1003B00020838BE390E02D813E812E593F4FF90140
:1003C0002081FC0120838091780090917900019632
:1003D00090937900809378008091780090917900D3
:1003E0002AE030E0B9010E942B06909379008093B7
:1003F000780080917A0090917B00019690937B0029
:1004000080937A0080917A0090917B00837090783D
:10041000992324F401978C6F9F6F019690937B0032
:1004200080937A0028960FB6F894DEBF0FBECDBF3A
:10043000DF91CF910895CF93DF93CDB7DEB72897A3
:100440000FB6F894DEBF0FBECDBF88E390E02FEF6C
:10045000FC01208380917400909175002AE030E0C7
:10046000B9010E942B069B013A8329838091740075
:10047000909175002AE030E0B9010E942B069C8320
:100480008B8380917600909177002AE030E0B9016B
:100490000E942B069B013E832D83809176009091D4
:1004A00077002AE030E0B9010E942B0698878F83FD
:1004B00080917A0090917B00009789F488E390E026
:1004C00020916C00FC0120838BE390E02B813C8128
:1004D0002E593F4FF9012081FC01208347C08091B4
:1004E0007A0090917B008130910589F488E390E057
:1004F00020916D00FC0120838BE390E029813A81FB
:100500002E593F4FF9012081FC0120832FC080919B
:100510007A0090917B008230910589F488E390E025
:1005200020916E00FC0120838BE390E02F813885C1
:100530002E593F4FF9012081FC01208317C0809183
:100540007A0090917B008330910581F488E390E0FC
:1005500020916F00FC0120838BE390E02D813E8190
:100560002E593F4FF9012081FC01208380917800B2
:100570009091790001969093790080937800809112
:100580007800909179002AE030E0B9010E942B06B2
:10059000909379008093780080917A0090917B000D
:1005A000019690937B0080937A0080917A009091DD
:1005B0007B0083709078992324F401978C6F9F6F50
:1005C000019690937B0080937A0028960FB6F8945A
:1005D000DEBF0FBECDBFDF91CF910895CF93DF93E4
:1005E000CDB7DEB7809160009091610081309105B8
:1005F00011F40E9448018091600090916100009781
:1006000011F40E941B02DF91CF910895CF93DF93E5
:10061000CDB7DEB7809172009091730001969093F0
:1006200073008093720080917200909173008C33FC
:100630009105B4F0809174009091750001969093AB
:1006400075008093740080917200909173002CE388
:1006500030E0B9010E942B069093730080937200E2
:1006600080917400909175008C339105B4F0809165
:1006700076009091770001969093770080937600B2
:1006800080917400909175002CE330E0B9010E94D4
:100690002B069093750080937400DF91CF9108959D
:1006A000CF93DF93CDB7DEB70E9474030E94CB03D4
:1006B00068EE73E085E990E00E94F80368EE73E06D
:1006C00086E093E00E94F80365E070E08EEE92E031
:1006D0000E94F80368EE73E081E291E00E94F80363
:1006E00078940E944F05FDCFCF93DF9300D0CDB714
:1006F000DEB71A82198244C029813A81C901880F64
:10070000991F880F991F880F991F821B930B8E5773
:100710009F4FFC011182108229813A81C901880F03
:10072000991F880F991F880F991F821B930B8C5755
:100730009F4FFC01108229813A81C901880F991FBE
:10074000880F991F880F991F821B930B82589F4F08
:10075000FC011182108229813A81C901880F991FF9
:10076000880F991F880F991F821B930B80589F4FEA
:10077000FC011182108289819A8101969A83898372
:1007800089819A818A3091050CF4B6CF0F900F9031
:10079000DF91CF910895CF93DF93CDB7DEB78CE58E
:1007A00090E02AEFFC01208383E590E023E530E030
:1007B000F90120812B60FC01208389E590E029E587
:1007C00030E0F90120812360FC0120838AE390E07E
:1007D0002FEFFC01208387E390E02FEFFC012083C3
:1007E00085E390E024E0FC012083DF91CF91089520
:1007F000CF93DF9300D000D0CDB7DEB79A83898343
:100800007C836B8380917C0090917D008A30910580
:100810000CF045C020917C0030917D00C901880F0B
:10082000991F880F991F880F991F821B930B8E5752
:100830009F4F2B813C81FC013183208320917C00E0
:1008400030917D00C901880F991F880F991F880F6B
:10085000991F821B930B80589F4F2B813C81FC0179
:100860003183208320917C0030917D00C901880F65
:10087000991F880F991F880F991F821B930B82580D
:100880009F4F29813A81FC013183208380917C0034
:1008900090917D00019690937D0080937C000F9055
:1008A0000F900F900F90DF91CF910895CF93DF932A
:1008B00000D0CDB7DEB71A821982E6C029813A810D
:1008C000C901880F991F880F991F880F991F821BD4
:1008D000930B82589F4FFC0180819181009709F40E
:1008E000CEC029813A81C901880F991F880F991FAD
:1008F000880F991F821B930B80589F4FFC018081AA
:100900009181AC014150510929813A81C901880F77
:10091000991F880F991F880F991F821B930B80586E
:100920009F4FFC015183408329813A81C901880F7F
:10093000991F880F991F880F991F821B930B80584E
:100940009F4FFC0180819181009709F054C029815B
:100950003A81C901880F991F880F991F880F991F25
:10096000821B930B8E579F4FFC01808191810097D2
:1009700009F441C029813A81C901880F991F880F64
:10098000991F880F991F821B930B8C579F4FFC0157
:100990008081482F4F5F29813A81C901880F991FB3
:1009A000880F991F880F991F821B930B8C579F4F9D
:1009B000FC01408329813A81C901880F991F880F62
:1009C000991F880F991F821B930B8E579F4FFC0115
:1009D0004081518129813A81C901880F991F880F6F
:1009E000991F880F991F821B930B80589F4FFC0102
:1009F0005183408344C029813A81C901880F991FDE
:100A0000880F991F880F991F821B930B80589F4F47
:100A1000FC0180819181009791F529813A81C9017A
:100A2000880F991F880F991F880F991F821B930B9E
:100A30008E579F4FFC0180819181009701F529819C
:100A40003A81C901880F991F880F991F880F991F34
:100A5000821B930B8C579F4FFC018081482F4F5F67
:100A600029813A81C901880F991F880F991F880F22
:100A7000991F821B930B8C579F4FFC0140838981E8
:100A80009A8101969A83898389819A818A30910516
:100A90000CF414CF0F900F90DF91CF910895CF9366
:100AA000DF9300D0CDB7DEB71A8219829DC02981AD
:100AB0003A81C901880F991F880F991F880F991FC4
:100AC000821B930B8C579F4FFC018081882309F474
:100AD00086C029813A81C901880F991F880F991F03
:100AE000880F991F821B930B82589F4FFC018081B6
:100AF0009181FC01099529813A81C901880F991FCB
:100B0000880F991F880F991F821B930B8C579F4F3B
:100B1000FC018081482F415029813A81C901880F09
:100B2000991F880F991F880F991F821B930B8C5751
:100B30009F4FFC01408329813A81C901880F991F89
:100B4000880F991F880F991F821B930B8C579F4FFB
:100B5000FC018081882309F042C029813A81C901C2
:100B6000880F991F880F991F880F991F821B930B5D
:100B70008E579F4FFC0180819181009781F52981DB
:100B80003A81C901880F991F880F991F880F991FF3
:100B9000821B930B8E579F4FFC011182108229817B
:100BA0003A81C901880F991F880F991F880F991FD3
:100BB000821B930B80589F4FFC0111821082298168
:100BC0003A81C901880F991F880F991F880F991FB3
:100BD000821B930B82589F4FFC01118210828981E6
:100BE0009A8101969A83898389819A818A309105B5
:100BF0000CF45DCF0F900F90DF91CF9108951F926D
:100C00000F9200905F000F9211242F933F934F9308
:100C10005F936F937F938F939F93AF93BF93EF9364
:100C2000FF93CF93DF93CDB7DEB70E945604DF91D9
:100C3000CF91FF91EF91BF91AF919F918F917F9154
:100C40006F915F914F913F912F910F9000925F00B4
:100C50000F901F90189597FB072E16F4009407D05D
:100C600077FD09D00E943F0607FC05D03EF4909521
:100C700081959F4F0895709561957F4F0895AA1BA8
:100C8000BB1B51E107C0AA1FBB1FA617B70710F077
:100C9000A61BB70B881F991F5A95A9F780959095A9
:0A0CA000BC01CD010895F894FFCFC8
:100CAA000100C0F9A4B0999282F88090FEFDFBFB86
:00000001FF
